:020000040800F2
:10000000201A0020650200086D0200084B0300085A
:100010007102000873020008750200080000000069
:10002000000000000000000000000000770200084F
:100030007902000800000000D3020008F90B000854
:100040007F0200087F0200087F0200087F0200088C
:100050007F0200087F0200087F0200087F0200087C
:100060007F0200087F0200087F0200087F0200086C
:100070007F0200087F0200087F0200087F0200085C
:100080007F0200087F0200087F0200087F0200084C
:100090007F0200087F0200087F0200087F0200083C
:1000A0007F0200087F0200087F0200087F0200082C
:1000B0007F0200087F0200087F0200087F0200081C
:1000C0007F0200087F0200087F0200087F0200080C
:1000D0007F0200087F0200087F0200087F020008FC
:1000E0007F0200087F0200087F0200087F020008EC
:1000F0007F0200087F0200087F0200087F020008DC
:100100007F0200087F0200087F0200087F020008CB
:100110007F0200087F0200087F0200087F020008BB
:100120007F0200087F0200087F0200087F020008AB
:100130007F02000800000000000000007F020008AD
:100140007F0200087F0200087F0200087F0200088B
:100150007F0200087F0200087F0200087F0200087B
:100160007F0200087F0200087F0200087F0200086B
:100170007F0200087F0200087F02000800000000E4
:10018000000000007F0200080000000000000000E6
:100190007F02000800000000000000007F0200084D
:1001A0000000000000000000000000007F020008C6
:1001B0007F0200087F0200087F0200087F0200081B
:1001C0007F02000800F002F800F03CF80AA090E876
:1001D000000C82448344AAF10107DA4501D100F002
:1001E00031F8AFF2090EBAE80F0013F0010F18BF93
:1001F000FB1A43F001031847602100008021000032
:10020000103A24BF78C878C1FAD8520724BF30C842
:1002100030C144BF04680C60704700000023002414
:1002200000250026103A28BF78C1FBD8520728BF06
:1002300030C148BF0B6070471FB501F0E7FF1FBD1D
:1002400010B510BD00F047F91146FFF7F5FF00F0BB
:100250007CF900F065F903B4FFF7F2FF03BC00F08E
:100260006DF900000948804709480047FEE7FEE7AE
:10027000FEE7FEE7FEE7FEE7FEE7FEE7FEE7FEE756
:1002800004480549054A064B704700008D0C0008DC
:10029000C501000820140020201A0020201600208C
:1002A00020160020EFF3108072B6704780F310889C
:1002B0007047324A1368012B04D04FF001031360DA
:1002C0002F4A10602F4A11602F484FF08051016073
:1002D0007047EFF3108272B62848016891B14FF071
:1002E000000101602648016829B1EFF3098121E985
:1002F000F00F00680160234909680968B1E8F00F50
:1003000081F3098882F310884EF0040E70471D496E
:1003100008601B494FF00000086018494FF00100C9
:1003200008601A484FF47F01D0F8002041EA02012A
:10033000016015484FF08051016015480068006861
:1003400080F3088861B662B670471EF0040F14BFD0
:10035000EFF30880EFF3098020E9F00F40F804ED97
:1003600014BF80F3088880F3098800B500F008FF07
:100370005DF804EB4EF0040E70470000A000002072
:10038000980000209C00002004ED00E020ED00E03B
:1003900008ED00E053EA020C00F069802DE9F04B13
:1003A0004FF00006002B1FBFB3FA83F503FA05F4E4
:1003B00024FA05F65E4012BF1643B2FA82F502FA3D
:1003C00005F4C5F120051EBF22FA05FC44EA0C0421
:1003D000203556EA044C4FEA144418BF641C4FF011
:1003E00000084FF00009904271EB030C39D300294B
:1003F00019BFB1FA81F701FA07F6B0FA80F700FAEF
:1004000007F6C7F120071EBF20FA07FC46EA0C06D4
:100410002037B6FBF4FCA7EB0507103F07F01F0BD6
:10042000CBF120060CFA0BFB2CFA06F644BFB346C0
:100430000026202FA4BF5E464FF0000B5BEA060C9F
:1004400008BF4FF0010B19EB0B09ABFB027C48EB2B
:100450000608C01B06FB02CC0BFB03CC71EB0C01A6
:10046000C1E70B46024641464846BDE8F08B13B54E
:100470004FF000004FF00001AFF30080BDE81C40DA
:1004800070474FF0000200B5134694469646203957
:1004900022BFA0E80C50A0E80C50B1F12001BFF43D
:1004A000F7AF090728BFA0E80C5048BF0CC05DF8A3
:1004B00004EB890028BF40F8042B08BF704748BFF1
:1004C00020F8022B11F0804F18BF00F8012B704765
:1004D000704770477047754600F02CF8AE4605002F
:1004E0006946534620F00700854618B020B5FFF74F
:1004F000C7FEBDE820404FF000064FF000074FF068
:1005000000084FF0000B21F00701AC46ACE8C00931
:10051000ACE8C009ACE8C009ACE8C0098D4670473A
:1005200010B50446AFF300802046BDE81040FFF749
:1005300092BE000000487047BC13002001491820FB
:10054000ABBEFEE726000200704710B5FFF7AAFE1B
:1005500001F02AFE002010BD0148806870470000AD
:10056000040000200B4810B5016841F400710160DF
:10057000016841F480610160016841F480710160AB
:10058000032000F061F80F2000F006F800F024F8D6
:10059000002010BD003C024070B50D4D04464FF4E4
:1005A0007A712878B1FBF0F00A490968B1FBF0F0E4
:1005B00000F00EFB48B9102C07D200222146501E35
:1005C00000F022F800206C6070BD012070BD0000BA
:1005D00004000020100000200A4808B5016841F41A
:1005E00080410160006800F4804000900548001FD1
:1005F000016841F080510160006800F08050009077
:1006000008BD000044380240F0B40E4B1B680C4695
:10061000C3F30223C3F10705042D00D90425191DD6
:10062000072901D2002300E0DB1E012606FA05F1AE
:10063000491E214099409E40761E16403143F0BC31
:1006400000F02CBB0CED00E0064900F00702086842
:100650004FF6FF03184040EA0220034A10430860A7
:10066000704700000CED00E00000FA052DE9F047AE
:100670000E46050065D0DFF81481D8F80000F7B207
:1006800000F00F00B04207D288F80070D8F80000E0
:1006900000F00F00B04254D128683D4C810712D5BC
:1006A000400703D5206840F4E05020602878000718
:1006B00003D5206840F4604020602068A96820F0DD
:1006C000F000084320602878C0072DD030496868C2
:1006D0000839012812D0022813D0032811D0096844
:1006E000890700292DDA216821F0030101432160E7
:1006F000FFF732FF814641F2883A0EE0096889032C
:10070000EFE709688901ECE7FFF726FFA0EB090195
:10071000514502D90320BDE8F0872068696800F0E0
:100720000C00B0EB810FEFD1D8F80010404601F07B
:100730000F01B14207D90770006800F00F00B04206
:1007400001D00120E7E72878400705D52068E9684F
:1007500020F4E050084320602878000706D5206880
:10076000296920F4604040EAC100206000F018F8D8
:100770002168084AC1F30311515CC840064908606A
:1007800006480068FFF708FF0020C4E7003C02406D
:10079000083802401622000810000020080000203F
:1007A000224810B5006810F00C02214815D02149EC
:1007B000042A11D01D4C241F082A0FD00C2A0CD15A
:1007C0002268236802F03F025B0221D52068C0F353
:1007D0008810A0FB010120E0084610BD22682368B4
:1007E00002F03F025B0205D52068C0F38810A0FB31
:1007F000010104E02168C1F38811A1FB000100237D
:10080000FFF7C8FD2168C1F30141491C49000AE016
:100810002168C1F38811A1FB00010023FFF7BAFD95
:100820002168C1F30271B0FBF1F010BD083802403D
:100830000024F40040787D012DE9F84F04007DD0BC
:10084000DFF878B32078ABF10407C007A7F10405FF
:1008500050D0DBF800105846C1F3810101290FD0B8
:100860000168C1F38101022902D13968490207D424
:100870000068C0F38100032809D13868400206D51A
:100880002868800336D560680028D8D032E06068D8
:10089000B0F5803F10D0B0F5A02F286810D020F41C
:1008A00080302860286820F4802028606068A0B12B
:1008B000FFF752FE06460CE0286840F48030F4E76B
:1008C00040F480202860F7E7FFF746FE801B64288D
:1008D00076D828688003F7D50CE0FFF73DFE064682
:1008E00005E000BFFFF738FE801B6428F0D82868B9
:1008F0008003F7D42078DFF8C89280074FF0000A11
:1009000044D5DBF80010584611F00C0F0FD00168E9
:10091000C1F38101022902D13968490207D5006873
:10092000C0F3810003280AD13868400207D4286840
:10093000800715D5E068012800D111E03AE1E068B0
:10094000B0B10120C9F80000FFF706FE064604E03A
:10095000FFF702FE801B0228BAD828688007F7D567
:100960002868216920F0F80040EAC10028600DE005
:10097000C9F800A0FFF7F0FD064604E0FFF7ECFD24
:10098000801B02281CD828688007F7D4207800072D
:1009900027D5DFF828828B48616908F16C0881B19E
:1009A00001210160FFF7D8FD064604E0FFF7D4FD02
:1009B000801B022804D8D8F800008007F6D510E084
:1009C00089E0C0F800A0FFF7C7FD064605E000BFBC
:1009D000FFF7C2FD801B02287DD8D8F800008007F1
:1009E000F6D42078400769D574484FF000083830B5
:1009F0000068C0000BD471483830016841F0805164
:100A0000016000684FF0010800F0805000906E4EC9
:100A10003068C00511D4306840F480703060FFF752
:100A20009BFD009006E000BFFFF796FD0099401A7D
:100A3000022850D83068C005F6D5604EA0686836E8
:100A400001280FD00528306810D020F00100306058
:100A5000306820F004003060A068B8B1FFF77CFD7A
:100A600000900FE0306840F00100F4E740F004002F
:100A70003060F7E7FFF770FD0099411A41F28830C6
:100A8000814264D830688007F4D50EE0FFF764FD3A
:100A9000009007E0FFF760FD0099411A41F28830AD
:100AA000814254D830688007F4D4B8F1000F05D0E3
:100AB00042483830016821F080510160A069A8B334
:100AC000DBF80010C1F38101022947D00228C9F8E0
:100AD00060A005D000E03AE0FFF73EFD044639E0B3
:100AE000FFF73AFD064604E0FFF736FD801B0228BB
:100AF0002DD828688001F7D4F4E907010843E1689C
:100B0000324A490802EB0141A26841EA82110843D6
:100B1000217C40EA0160217D40EA017038600120BB
:100B2000C9F86000FFF718FD044606E044E000BF86
:100B3000FFF712FD001B022809D828688001F7D5AD
:100B40003AE000BFFFF708FD001B022802D903208E
:100B5000BDE8F88F28688001F4D42DE00128F7D093
:100B60003868E26900F48001914223D1226A00F0E2
:100B70003F0191421ED147F6C071626A0140B1EB5C
:100B8000821F17D1A26A4FF0FF3300F4403103EB0C
:100B90005202B1EB024F0DD194F82C2000F070619D
:100BA000B1EB026F06D194F8301000F0E040B0EBEA
:100BB000017F01D00120CBE70020C9E708380240BF
:100BC00000004742800E4742007000400000FFFFD7
:100BD00010B5401EB0F1807F01D3012010BD4FF051
:100BE000E02460610F21601700F058F80020A06138
:100BF00007202061002010BD10B500F0D7FB01F0E8
:100C0000ADF8BDE8104000F0DFBB000010B594B0B7
:100C100034216846FFF735FC14210DA8FFF731FC9D
:100C200018480024016841F080510160006800F01C
:100C3000805012901448016821F4404141F48041F1
:100C400001600068069400F4404012900220009079
:100C500001200390102004906846FFF7EDFD08B1D5
:100C600072B6FEE70F20CDE90D040F941094002119
:100C70000DA81194FFF7FAFC002801D072B6FEE728
:100C800014B010BD403802400070004002480168B6
:100C900041F470010160704788ED00E00907090E1A
:100CA000002804DB00F1E02080F80014704700F019
:100CB0000F0000F1E02080F8141D7047002807D0D5
:100CC0000E4910F0FF0F04D051FA80F00078401C5C
:100CD000704710F47F4F04D0C0F30720085C093040
:100CE000704710F47F0F04D0C0F30740085C113048
:100CF000704701EB10600078193070472622000819
:100D000003480168814201D00120704700207047EC
:100D1000800000202DE9FC411F460446DDE9083132
:100D2000DDE90A65143040600060C4E90827C4E9C1
:100D30000A310A46232118461C3400F033FCD4E95A
:100D400003014218D4E90101104B121F00F012FBFD
:100D500044F81A0B002004F801690D4A04F8036BEB
:100D6000E4E8020544F8105901C404F83C0B01C43E
:100D700044F87409009023460190194604F1440098
:100D800001F05EF80020BDE8FC810000E11A0008D7
:100D9000CF1C000810B5029C24F001044472C0E985
:100DA00007120021C0E9093114304060006010BD15
:100DB000F0E905124A60D0E900121160406000605D
:100DC000704700001CB505210F20CDE900014FF44C
:100DD00000730022084909A000F05DFE094908607F
:100DE00010B100F03DFF02E007A000F025FBFFF787
:100DF000B9FBFFF70BFFFEE7FD2100087468726581
:100E000061643100000000207468726561642069CB
:100E10006E6974206661696C6564000010B500F04D
:100E2000E9F8BDE81040FFF7CDBF000030B5134929
:100E300043680A68134402F1080498420DD05D88A3
:100E40005DB94D68AB4208D08D689D4200D1886085
:100E50005D6845605B68851A1D5183681344834251
:100E60000BD05D88002D08D18D68854200D18B6044
:100E7000416859604068991A015130BD1C0000203A
:100E80002DE9F04F85B09946DDE90EA5109C63066B
:100E900002D5DFF814C103E0DFF80CC1ACF1110C8E
:100EA000E30601D524F00104E30701D0302300E07C
:100EB000202300260493A3070BD5002A02DA2D264F
:100EC000524206E0630701D52B2602E0230700D536
:100ED000202600234FF0300EEB461AB98DF800E0C3
:100EE00001230CE0B9F10A0F14D002F00F08120927
:100EF0001CF808800BF803805B1C002AF2D1AB427F
:100F000000DD1D46AAEB050214F0110F4FF020077B
:100F100008D015E00A27B2FBF7F807FB1828B2FB48
:100F2000F7F2E5E73EB1002A05DD521E03E08842F4
:100F300000D80770401CB2F1000CA2F10102F6DCEF
:100F400026B1884201D80670521E401CE40605D521
:100F500008E0884201D8049C0470401C141EA2F1D1
:100F60000102F6DC74462E466D1E9E420ADD884262
:100F700000D80470401CF6E7884201D8E55C057093
:100F8000401C00E05C461D1EA3F10103F4DC03E0FD
:100F9000884200D80770401C131EA2F10102F7DC42
:100FA00005B0BDE8F08F0000372300081CB5142100
:100FB0000A20CDE900014FF400730022034904A088
:100FC00000F069FDBDE81C4000F04ABE1D0E00089F
:100FD0006D61696E0000000070B5044C044D02E0C4
:100FE00020688047241DAC42FAD370BD4C23000812
:100FF0005023000870B5044C044D02E0206880477F
:10100000241DAC42FAD370BD5023000854230008BD
:1010100010B5FFF747F9044A5188491C5180BDE8D3
:101020001040FFF743B900007400002010B5FFF72F
:1010300039F909494A88521E12B24A80002A07DC4F
:1010400000224A80FFF732F9BDE8104000F048BBAB
:10105000BDE81040FFF72AB97400002070B50028E1
:1010600033D01A4D296888422FD3696888422CD220
:10107000A0F10C044FF0FF31154800F0D6FB60885A
:101080004FF4F55610B12088B04208D011A000F0FE
:10109000D3F923886288214615A000F0CDF90020FD
:1010A00060802680A868844200D2AC6029686068AD
:1010B000611A401A2969081A28612046FFF7B6FE0E
:1010C000BDE87040024800F095BB70BD1C000020D8
:1010D0009C120020746F2066726565206120626139
:1010E00064206461746120626C6F636B3A0A000073
:1010F0006D656D3A203078253038782C2075736511
:101100006420666C61673A2025642C206D616769F4
:101110006320636F64653A203078253034780A00A4
:1011200000487047A400002000487047A410002029
:10113000104810B500684FF47A71B0FBF1F0401E12
:10114000B0F1807F0AD24FF0E02148610A4AF020D6
:1011500082F8140D0020886107200861FFF73CFF2A
:10116000FFF7E2FF0446FFF7DBFF2146BDE8104032
:1011700000F006BC100000200FE000E07047000007
:1011800070B50546041D2B48016819B128468847EB
:1011900000284DD028A0E16B00F04EF92AA0216A6A
:1011A00000F04AF92CA0616A00F046F92EA0A16A6D
:1011B00000F042F930A0E16A00F03EF932A0216867
:1011C00000F03AF934A0616800F036F936A0A16861
:1011D00000F032F938A0E16800F02EF93AA0216958
:1011E00000F02AF93CA0616900F026F93EA0A1694F
:1011F00000F022F940A0E16900F01EF942A0216B45
:1012000000F01AF944A0616B00F016F946A0A16B3A
:1012100000F012F92878400706D500F01BFD0146C2
:1012200045A000F009F902E04BA000F005F9FEE747
:1012300070BD0000940000207073723A2030782551
:101240003038780A000000007230303A20307825BB
:101250003038780A000000007230313A20307825AA
:101260003038780A000000007230323A2030782599
:101270003038780A000000007230333A2030782588
:101280003038780A000000007230343A2030782577
:101290003038780A000000007230353A2030782566
:1012A0003038780A000000007230363A2030782555
:1012B0003038780A000000007230373A2030782544
:1012C0003038780A000000007230383A2030782533
:1012D0003038780A000000007230393A2030782522
:1012E0003038780A000000007231303A203078251A
:1012F0003038780A000000007231313A2030782509
:101300003038780A000000007231323A20307825F7
:101310003038780A00000000206C723A20307825BE
:101320003038780A000000002070633A20307825B9
:101330003038780A000000006861726420666175C8
:101340006C74206F6E207468726561643A20257336
:101350000D0A0D0A00000000686172642066617564
:101360006C74206F6E2068616E646C65720D0A0D7E
:101370000A00000070B50446121D22F0070000228A
:10138000094D403840F82250521C102AFAD301620D
:101390000021416281624FF0807200F13005C2632A
:1013A000C16285E81A0070BDEFBEADDE10B5FEF774
:1013B00079FF044A1178491C1170BDE81040FEF70E
:1013C00075BF00001800002010B5FEF76BFF044A3F
:1013D0001178491E1170BDE81040FEF767BF00008C
:1013E000180000202DE9F041064614460D46084637
:1013F00000F04CFC05F11407B4B1012C18D134688D
:101400000EE000BF95F8351094F82120A4F11400E7
:10141000914204D23946143000F033F802E02468D7
:10142000B442EFD1B44203D13946304600F029F836
:101430000020BDE8F08100000FB47F2110B503ABA0
:101440000448029A00F06EFD0248FFF797FE10BCB8
:101450005DF814FB1C1200200268516002680A60EB
:101460000160486070470268516002680A6001606C
:10147000486070470268516002680A600160486015
:1014800070474268116042684A6041600860704776
:10149000D0E900124A60D0E900121160406000609B
:1014A0007047D0E900124A60D0E900121160406034
:1014B000006070472DE9F047002807D0374CC01C6A
:1014C00020F00306E068864202D90020BDE8F087DC
:1014D0000C2E00D20C264FF0FF31314800F0A5F958
:1014E000D4F808C02168E768ACEB0100BA1B4FE0F4
:1014F0000D186B88E3BB6B681B1A0C3BB34246D3D9
:101500006A6806F11803121A0C3A4FF001094FF4F9
:10151000F55A9A422DD383190C33CA184FF000089C
:10152000A2F800A0A2F80280D5F80480C2E90180E8
:101530006B60A5F8029050680C37B84202D001F1F8
:1015400008028350206930440C3020616269824275
:1015500000D26061A5F800A0654512D1A06842885C
:101560007AB1626890420CD040680844A060F6E707
:101570000DE0A5F8029068686A1A801A2269104482
:10158000E3E7074800F036F905F10C009EE76868CC
:101590008242ADD8024800F02DF996E71C000020E9
:1015A0009C12002010B50346CCB2042A1AD381073E
:1015B00018D1194644EA042343EA034306E008C16C
:1015C000103A08C141F8083B41F8043C102AF6D211
:1015D00001E008C1121F042AFBD20B4602E000BF43
:1015E00003F8014B521EFBD210BD2DE9F0410F460E
:1015F000064600F03DF80546C068FFF75BFF0400B3
:1016000015D026720020607208223946204600F06C
:10161000A3F9FEF747FE064604F10C01281DFFF76B
:101620001BFF3046FEF742FE2046BDE8F081002059
:10163000FBE770B50446FEF735FE054604F10C00E5
:10164000FFF726FF2846FEF731FE2046BDE8704032
:10165000FFF704BD70B50446FEF724FE054604F10D
:101660000C00FFF715FF2846BDE87040FEF71EBED0
:10167000074A002102EB01131B78834202D102EBDF
:1016800001107047491C0429F4DB0020704700005A
:10169000340000202DE9F041044616460D46084668
:1016A000FFF7E6FF074645F080002072082231462A
:1016B000204600F051F9FEF7F5FD054604F10C0156
:1016C000381DFFF7C9FE2846BDE8F041FEF7EEBD24
:1016D000007A000601D50120704700207047000005
:1016E00070B5FEF7DFFD114C05466088B0B9A06803
:1016F000FFF7E4FA0E49401E626851F830101439C1
:1017000091420BD020700B486160007801F11C0100
:10171000002802F11C0006D0FEF7CBFD2846BDE8EC
:101720007040FEF7C3BDFEF7C4FDF7E7740000206C
:10173000BC1200201800002010B50446FEF7B2FDD0
:10174000024694F834000E4920F00F00401C84F843
:10175000340094F8350001EBC00104F114004B682B
:1017600018604B68A361486006486161A16B83689B
:1017700019438160BDE810401046FEF797BD000098
:10178000BC1200207400002010B50446FEF78AFD4C
:1017900004F11401D1E900235360D1E900231A6058
:1017A000A161616194F83520074951F8323001EBAD
:1017B000C2018B4204D10549A36B8A689A438A60AF
:1017C000BDE81040FEF772BDBC120020740000207E
:1017D0002DE9F04116460A461F4605460121FFF74E
:1017E00059FF05F11404AC616C61AE836F72002087
:1017F000BDE8F08170B50446FEF754FD054660690A
:1018000004F11401884208D0143800F005FA284683
:10181000FEF74CFDFFF764FF05E0A08B401CA083A2
:101820002846FEF743FD002070BD73B50546FEF760
:1018300039FD0646A88B28B1401EA8833046FEF726
:1018400035FD21E0019808B300F004FA04460020B9
:1018500020636A7A214605F11400FFF7C3FD019861
:10186000002809DD04F1440001AA0021054600F02A
:10187000BFFA284600F0F8FA3046FEF717FDFFF7EA
:101880002FFF206B002800D100207CBD3046FEF7E2
:101890000DFD6FF001007CBD08B509A0FFF7CCFD80
:1018A0000AA0FFF7C9FD12A00323009000221946E9
:1018B00012A0FFF7C1FDBDE8084018A0FFF7BCBDAE
:1018C0000A205C207C202F0A000000002D205254AA
:1018D000202D2020202020546872656164204F70E4
:1018E00065726174696E672053797374656D0A005F
:1018F000536570203234203230323400202F207C67
:10190000205C202020202025642E25642E256420A4
:101910006275696C642025730A0000002032303043
:1019200036202D203230313820436F70797269674C
:1019300068742062792072742D7468726561642005
:101940007465616D0A000000014600E0491C0A78D8
:10195000002AFBD1081A704710B5002A07D00346A9
:1019600011F8014B03F8014B2CB1521EF8D110BDF8
:1019700003F8011B00E00021521EF9D110BD000048
:101980000A46C11C10B522F0030321F00301182BF5
:1019900020D9A3F118048C421CD3114C581A1838C2
:1019A0002160E0604FF4F5520A8000230C30C1E959
:1019B00001034B804B68194461600A8001224A8010
:1019C00048608860002307A10848FFF701FF2068EE
:1019D000A06010BD0146BDE8104005A0FFF72CBD7A
:1019E0001C00002068656170000000009C1200204F
:1019F0006D656D20696E69742C206572726F72203E
:101A0000626567696E206164647265737320307803
:101A100025782C20616E6420656E64206164647298
:101A200065737320307825780A00000010B50A49E4
:101A300000230A4C4B80184604EBC002401C526045
:101A400012602028F8DB1F20087003484B600C3020
:101A50008B604060006010BD74000020BC1200204C
:101A600010B5074CA068FFF729F90649401E51F848
:101A7000300014386060BDE810401C30FEF747BCF1
:101A800074000020BC1200200148406000607047D4
:101A90008C00002070472DE9FF478946DDE90C7670
:101AA000824601461D4690460020FFF79EFD041E1B
:101AB0000DD02846FFF7FEFC60B103968DE8A1002B
:101AC00043464A4651462046FFF724F9204604B0D3
:101AD000BDE8F0872046FFF7ACFD0020F7E70000E7
:101AE00070B513480468FEF7DDFB05462046FFF796
:101AF0004BFE042084F8340004F1440000F090F917
:101B00002046FFF7E5FD012801D1206F58B104F10F
:101B100014010848FFF7A7FC2846FEF7C7FBBDE8FD
:101B20007040FFF7DDBD2046FFF794FDF4E70000AD
:101B3000780000208000002000F002F8FCE70000A0
:101B400070B527E0FEF7AEFB0546FFF7D9F840B3C6
:101B500016480168A1F11404D1E900024260D1E9FC
:101B60000002106049600960FFF752FA216F09B165
:101B7000204688472046FFF7ABFD01280FD0FFF72E
:101B800055FA2846FEF792FBA06AFFF767FA20464F
:101B9000FFF74FFDFFF7B4F80028D3D170BDFFF772
:101BA00045FA2846BDE87040FEF780BB8000002063
:101BB0001FB5202308481F22D9008DE80F000023FD
:101BC000064A07A1783800F00FF804B00248BDE8D3
:101BD0001040783800F044B81C110020391B000870
:101BE0007469646C650000002DE9FF5F92460EAADF
:101BF0000C4692E8E0010A46994683460021FFF729
:101C000049FD8DE8E0014B46524621465846FFF714
:101C100081F804B0BDE8F09F70B5044690F8340038
:101C200000F00F00022802D04FF0FF3070BDFEF729
:101C300039FB054604F11400FFF733FC04F14400BE
:101C400000F058F92846FEF731FB2046FFF774FDF7
:101C5000002070BD01480068704700007800002037
:101C600010B590F83610012280F835108A40022114
:101C7000826380F83410FFF7CFFF0348006808B193
:101C8000FFF72EFD002010BD7800002070B504463F
:101C900090F8340000F00F00012802D04FF0FF3020
:101CA00070BDFEF7FFFA054694F8340020F00F00EF
:101CB000801C84F834002046FFF766FD04F14400E0
:101CC00000F018F92846FEF7F1FA002070BD10B5B3
:101CD00004466FF00100206304F11400FFF7E1FBFC
:101CE0002046FFF729FDBDE81040FFF7F9BC0000D2
:101CF00070B5FEF7D7FA06461348046894F8340026
:101D000000F00F00012819D1D4E90501884215D04F
:101D100004F114000546FFF7C4FB94F835000B49A5
:101D200001EBC00041680D60416869604560286052
:101D30003046FEF7BBFAFFF7D3FC02E03046FEF771
:101D4000B5FA002070BD000078000020BC12002011
:101D5000014800687047000014000020094810B5D1
:101D60000168491C0160FFF775FF016C491E0164A1
:101D700003D1C16B0164FFF7BBFFBDE8104000F069
:101D800003B80000140000202DE9F041FFF7E0FF48
:101D90000646FEF787FA0746144D1EE060696FF0AD
:101DA0000041301A143C88421AD22046FFF700F84E
:101DB000D4E907108847FFF7CBFF0646607A810712
:101DC00008D5C10706D020F001006072204600F05F
:101DD0004BF802E020F0010060722C68AC42DDD1CB
:101DE0003846BDE8F041FEF761BA00008C000020E3
:101DF00049B1012904D0022908D003290ED109E0F4
:101E0000406A10600AE01168416207E0417A21F0FF
:101E1000020102E0417A41F0020141720020704764
:101E200070B50546FEF73EFA04462846FEF7C0FFA9
:101E30002046FEF73BFA2846FFF70CFC002070BD59
:101E40002DE9F8439046DDE908450A461F46064657
:101E50000921FFF71FFC23463A46414630460095CC
:101E6000FEF798FFBDE8F883F8B50446FEF71AFAC6
:101E700005462046FEF79CFF607A20F00100607264
:101E80002846FEF713FAFFF763FF616A0844A06271
:101E9000FEF708FA0546164A0020009202EBC0023F
:101EA000694653686FF0004C5DF820200BE0126823
:101EB000A2EBC0067769A66AB74202D0BE1B664590
:101EC00003D341F820209A42F1D10948001F01684C
:101ED000491C016004F114010098FFF7CBFA607A05
:101EE00040F0010060722846FEF7E0F90020F8BDDE
:101EF0008C00002070B50446407AC0070ED0FEF773
:101F0000D1F905462046FEF753FF2846FEF7CEF9E5
:101F1000607A20F001006072002070BD4FF0FF3049
:101F200070BD00002DE9FF4F471804467F1E83B0A7
:101F300080464FF0FF394FF0200A4FF0250BA742A3
:101F400000D24F4608E1252803D0BC4200D82070BB
:101F500081E000260599491C059108782D2811D0AB
:101F60002B2812D0202813D0232814D0302815D0A5
:101F70000A784D46303A0A2A13D205A800F029F90A
:101F800005461AE046F01006E4E746F00406E1E7ED
:101F900046F00806DEE746F02006DBE746F00106DD
:101FA000D8E72A2809D10698491C059120C806902F
:101FB000002D02DA6D4246F01006CDF8009005982B
:101FC00001782E2918D1401C05900178A1F130022A
:101FD0000A2A04D205A800F0FCF8009008E02A299B
:101FE00008D1401C0590069802C80690009108464A
:101FF000002801DA00200090059A00201178682955
:1020000001D06C2902D1521C0846059211780A238E
:102010006F296ED00CDC63291FD004DC252979D010
:1020200058290DD17FE0642901D0692908D17EE0CB
:10203000702960D073292CD075297AD0782974D072
:10204000BC4201D884F800B00598641C0178D1B373
:10205000BC4200D82170641C7BE0F00608D45046D6
:102060006D1E002D04DDBC4200D82070641CF7E713
:102070000698BC4210F8041B069000D82170504608
:1020800002E0BC4200D82070641C6D1E002DF8DCFC
:102090005FE0069808C8069003B93DA31846FFF70D
:1020A00053FC0099002902DD884200DD0846F10654
:1020B0000AD451462A466D1E824205DDBC4200D834
:1020C0002170641CF6E750E0002106E0BC4201D814
:1020D0001A782270491C5B1C641C8142F6DB524654
:1020E00029466D1E814234DDBC4200D82270641C3A
:1020F000F6E716E00EE0681C02D1082546F001065E
:1021000000980296CDE9005006981023394604C87D
:1021100006901AE0BC429ED884F800B09BE708E025
:1021200003E0082305E046F04006102301E046F0F6
:1021300002066C2801D068281AD0069804C80690B8
:1021400000983946CDE9005002962046FEF798FEE9
:1021500004460598401C05900598007800287FF4F7
:10216000F2AEBC420DD820700CE0401E0590F0E7A6
:10217000069830F8041B06908AB2B007E0D512B278
:10218000DEE7387007B0A4EB0800BDE8F08F000070
:10219000284E554C4C290000002070470020704705
:1021A000002070470020704710B5FEF77BF8FEF75F
:1021B000BFFFFFF771FBFFF767FCFFF737FCFEF788
:1021C000F5FEFFF767FCFFF7F3FCFFF749FC002083
:1021D00010BD10B5014600206FF02F0307E0541C1E
:1021E0000C60127800EB800003EB400010440A689A
:1021F0001478303C0A2CF2D310BD000001A0FFF788
:102200001BF9FBE748656C6C6F0A00004FF04070EB
:10221000E1EE100A7047000000000000000001021B
:102220000304060708090000010002000100030082
:10223000010002000100040001000200010003008F
:10224000010002000100050001000200010003007E
:10225000010002000100040001000200010003006F
:10226000010002000100060001000200010003005D
:10227000010002000100040001000200010003004F
:10228000010002000100050001000200010003003E
:10229000010002000100040001000200010003002F
:1022A000010002000100070001000200010003001C
:1022B000010002000100040001000200010003000F
:1022C00001000200010005000100020001000300FE
:1022D00001000200010004000100020001000300EF
:1022E00001000200010006000100020001000300DD
:1022F00001000200010004000100020001000300CF
:1023000001000200010005000100020001000300BD
:1023100001000200010004000100020001000300AE
:10232000010002000100303132333435363738399C
:102330006162636465660030313233343536373874
:102340003941424344454600A52100089D2100082B
:1023500099210008A121000878230008000000202E
:10236000A4000000000200081C240008A4000020B3
:102370007C1900001C0200080000000001000000A1
:1023800010000000000000000024F4000000000025
:10239000000000000000000000000000000000003D
:1023A000000000000000000000000000000000002D
:1023B00038000020380000207800000001000000F4
:1023C0004800002048000020200000000400000019
:1023D00058000020580000203000000009000000D4
:1023E00068000020680000202C00000000000000B1
:1023F00000000000000000000000000000000000DD
:1024000000000000000000000000000000000000CC
:0C241000000000000000000000000000C0
:04000005080001C529
:00000001FF
