:020000040800F2
:10000000D80B0020650200086D0200084B030008B1
:100010007102000873020008750200080000000069
:10002000000000000000000000000000770200084F
:100030007902000800000000D3020008F90B000854
:100040007F0200087F0200087F0200087F0200088C
:100050007F0200087F0200087F0200087F0200087C
:100060007F0200087F0200087F0200087F0200086C
:100070007F0200087F0200087F0200087F0200085C
:100080007F0200087F0200087F0200087F0200084C
:100090007F0200087F0200087F0200087F0200083C
:1000A0007F0200087F0200087F0200087F0200082C
:1000B0007F0200087F0200087F0200087F0200081C
:1000C0007F0200087F0200087F0200087F0200080C
:1000D0007F0200087F0200087F0200087F020008FC
:1000E0007F0200087F0200087F0200087F020008EC
:1000F0007F0200087F0200087F0200087F020008DC
:100100007F0200087F0200087F0200087F020008CB
:100110007F0200087F0200087F0200087F020008BB
:100120007F0200087F0200087F0200087F020008AB
:100130007F02000800000000000000007F020008AD
:100140007F0200087F0200087F0200087F0200088B
:100150007F0200087F0200087F0200087F0200087B
:100160007F0200087F0200087F0200087F0200086B
:100170007F0200087F0200087F02000800000000E4
:10018000000000007F0200080000000000000000E6
:100190007F02000800000000000000007F0200084D
:1001A0000000000000000000000000007F020008C6
:1001B0007F0200087F0200087F0200087F0200081B
:1001C0007F02000800F002F800F03CF80AA090E876
:1001D000000C82448344AAF10107DA4501D100F002
:1001E00031F8AFF2090EBAE80F0013F0010F18BF93
:1001F000FB1A43F001031847B01B0000D01B00009E
:10020000103A24BF78C878C1FAD8520724BF30C842
:1002100030C144BF04680C60704700000023002414
:1002200000250026103A28BF78C1FBD8520728BF06
:1002300030C148BF0B6070471FB501F00EFD1FBDF8
:1002400010B510BD00F047F91146FFF7F5FF00F0BB
:100250007CF900F065F903B4FFF7F2FF03BC00F08E
:100260006DF900000948804709480047FEE7FEE7AE
:10027000FEE7FEE7FEE7FEE7FEE7FEE7FEE7FEE756
:1002800004480549054A064B704700008D0C0008DC
:10029000C5010008D8050020D80B0020D807002091
:1002A000D8070020EFF3108072B6704780F31088F3
:1002B0007047324A1368012B04D04FF001031360DA
:1002C0002F4A10602F4A11602F484FF08051016073
:1002D0007047EFF3108272B62848016891B14FF071
:1002E000000101602648016829B1EFF3098121E985
:1002F000F00F00680160234909680968B1E8F00F50
:1003000081F3098882F310884EF0040E70471D496E
:1003100008601B494FF00000086018494FF00100C9
:1003200008601A484FF47F01D0F8002041EA02012A
:10033000016015484FF08051016015480068006861
:1003400080F3088861B662B670471EF0040F14BFD0
:10035000EFF30880EFF3098020E9F00F40F804ED97
:1003600014BF80F3088880F3098800B500F03CFED4
:100370005DF804EB4EF0040E70470000840000208E
:100380007C0000208000002004ED00E020ED00E073
:1003900008ED00E053EA020C00F069802DE9F04B13
:1003A0004FF00006002B1FBFB3FA83F503FA05F4E4
:1003B00024FA05F65E4012BF1643B2FA82F502FA3D
:1003C00005F4C5F120051EBF22FA05FC44EA0C0421
:1003D000203556EA044C4FEA144418BF641C4FF011
:1003E00000084FF00009904271EB030C39D300294B
:1003F00019BFB1FA81F701FA07F6B0FA80F700FAEF
:1004000007F6C7F120071EBF20FA07FC46EA0C06D4
:100410002037B6FBF4FCA7EB0507103F07F01F0BD6
:10042000CBF120060CFA0BFB2CFA06F644BFB346C0
:100430000026202FA4BF5E464FF0000B5BEA060C9F
:1004400008BF4FF0010B19EB0B09ABFB027C48EB2B
:100450000608C01B06FB02CC0BFB03CC71EB0C01A6
:10046000C1E70B46024641464846BDE8F08B13B54E
:100470004FF000004FF00001AFF30080BDE81C40DA
:1004800070474FF0000200B5134694469646203957
:1004900022BFA0E80C50A0E80C50B1F12001BFF43D
:1004A000F7AF090728BFA0E80C5048BF0CC05DF8A3
:1004B00004EB890028BF40F8042B08BF704748BFF1
:1004C00020F8022B11F0804F18BF00F8012B704765
:1004D000704770477047754600F02CF8AE4605002F
:1004E0006946534620F00700854618B020B5FFF74F
:1004F000C7FEBDE820404FF000064FF000074FF068
:1005000000084FF0000B21F00701AC46ACE8C00931
:10051000ACE8C009ACE8C009ACE8C0098D4670473A
:1005200010B50446AFF300802046BDE81040FFF749
:1005300092BE00000048704778050020014918204D
:10054000ABBEFEE726000200704710B5FFF7AAFE1B
:1005500001F05AFB002010BD014880687047000080
:10056000000000200B4810B5016841F400710160E3
:10057000016841F480610160016841F480710160AB
:10058000032000F061F80F2000F006F800F024F8D6
:10059000002010BD003C024070B50D4D04464FF4E4
:1005A0007A712878B1FBF0F00A490968B1FBF0F0E4
:1005B00000F00EFB48B9102C07D200222146501E35
:1005C00000F022F800206C6070BD012070BD0000BA
:1005D000000000200C0000200A4808B5016841F422
:1005E00080410160006800F4804000900548001FD1
:1005F000016841F080510160006800F08050009077
:1006000008BD000044380240F0B40E4B1B680C4695
:10061000C3F30223C3F10705042D00D90425191DD6
:10062000072901D2002300E0DB1E012606FA05F1AE
:10063000491E214099409E40761E16403143F0BC31
:1006400000F02CBB0CED00E0064900F00702086842
:100650004FF6FF03184040EA0220034A10430860A7
:10066000704700000CED00E00000FA052DE9F047AE
:100670000E46050065D0DFF81481D8F80000F7B207
:1006800000F00F00B04207D288F80070D8F80000E0
:1006900000F00F00B04254D128683D4C810712D5BC
:1006A000400703D5206840F4E05020602878000718
:1006B00003D5206840F4604020602068A96820F0DD
:1006C000F000084320602878C0072DD030496868C2
:1006D0000839012812D0022813D0032811D0096844
:1006E000890700292DDA216821F0030101432160E7
:1006F000FFF732FF814641F2883A0EE0096889032C
:10070000EFE709688901ECE7FFF726FFA0EB090195
:10071000514502D90320BDE8F0872068696800F0E0
:100720000C00B0EB810FEFD1D8F80010404601F07B
:100730000F01B14207D90770006800F00F00B04206
:1007400001D00120E7E72878400705D52068E9684F
:1007500020F4E050084320602878000706D5206880
:10076000296920F4604040EAC100206000F018F8D8
:100770002168084AC1F30311515CC840064908606A
:1007800006480068FFF708FF0020C4E7003C02406D
:1007900008380240641C00080C00002004000020FF
:1007A000224810B5006810F00C02214815D02149EC
:1007B000042A11D01D4C241F082A0FD00C2A0CD15A
:1007C0002268236802F03F025B0221D52068C0F353
:1007D0008810A0FB010120E0084610BD22682368B4
:1007E00002F03F025B0205D52068C0F38810A0FB31
:1007F000010104E02168C1F38811A1FB000100237D
:10080000FFF7C8FD2168C1F30141491C49000AE016
:100810002168C1F38811A1FB00010023FFF7BAFD95
:100820002168C1F30271B0FBF1F010BD083802403D
:100830000024F40040787D012DE9F84F04007DD0BC
:10084000DFF878B32078ABF10407C007A7F10405FF
:1008500050D0DBF800105846C1F3810101290FD0B8
:100860000168C1F38101022902D13968490207D424
:100870000068C0F38100032809D13868400206D51A
:100880002868800336D560680028D8D032E06068D8
:10089000B0F5803F10D0B0F5A02F286810D020F41C
:1008A00080302860286820F4802028606068A0B12B
:1008B000FFF752FE06460CE0286840F48030F4E76B
:1008C00040F480202860F7E7FFF746FE801B64288D
:1008D00076D828688003F7D50CE0FFF73DFE064682
:1008E00005E000BFFFF738FE801B6428F0D82868B9
:1008F0008003F7D42078DFF8C89280074FF0000A11
:1009000044D5DBF80010584611F00C0F0FD00168E9
:10091000C1F38101022902D13968490207D5006873
:10092000C0F3810003280AD13868400207D4286840
:10093000800715D5E068012800D111E03AE1E068B0
:10094000B0B10120C9F80000FFF706FE064604E03A
:10095000FFF702FE801B0228BAD828688007F7D567
:100960002868216920F0F80040EAC10028600DE005
:10097000C9F800A0FFF7F0FD064604E0FFF7ECFD24
:10098000801B02281CD828688007F7D4207800072D
:1009900027D5DFF828828B48616908F16C0881B19E
:1009A00001210160FFF7D8FD064604E0FFF7D4FD02
:1009B000801B022804D8D8F800008007F6D510E084
:1009C00089E0C0F800A0FFF7C7FD064605E000BFBC
:1009D000FFF7C2FD801B02287DD8D8F800008007F1
:1009E000F6D42078400769D574484FF000083830B5
:1009F0000068C0000BD471483830016841F0805164
:100A0000016000684FF0010800F0805000906E4EC9
:100A10003068C00511D4306840F480703060FFF752
:100A20009BFD009006E000BFFFF796FD0099401A7D
:100A3000022850D83068C005F6D5604EA0686836E8
:100A400001280FD00528306810D020F00100306058
:100A5000306820F004003060A068B8B1FFF77CFD7A
:100A600000900FE0306840F00100F4E740F004002F
:100A70003060F7E7FFF770FD0099411A41F28830C6
:100A8000814264D830688007F4D50EE0FFF764FD3A
:100A9000009007E0FFF760FD0099411A41F28830AD
:100AA000814254D830688007F4D4B8F1000F05D0E3
:100AB00042483830016821F080510160A069A8B334
:100AC000DBF80010C1F38101022947D00228C9F8E0
:100AD00060A005D000E03AE0FFF73EFD044639E0B3
:100AE000FFF73AFD064604E0FFF736FD801B0228BB
:100AF0002DD828688001F7D4F4E907010843E1689C
:100B0000324A490802EB0141A26841EA82110843D6
:100B1000217C40EA0160217D40EA017038600120BB
:100B2000C9F86000FFF718FD044606E044E000BF86
:100B3000FFF712FD001B022809D828688001F7D5AD
:100B40003AE000BFFFF708FD001B022802D903208E
:100B5000BDE8F88F28688001F4D42DE00128F7D093
:100B60003868E26900F48001914223D1226A00F0E2
:100B70003F0191421ED147F6C071626A0140B1EB5C
:100B8000821F17D1A26A4FF0FF3300F4403103EB0C
:100B90005202B1EB024F0DD194F82C2000F070619D
:100BA000B1EB026F06D194F8301000F0E040B0EBEA
:100BB000017F01D00120CBE70020C9E708380240BF
:100BC00000004742800E4742007000400000FFFFD7
:100BD00010B5401EB0F1807F01D3012010BD4FF051
:100BE000E02460610F21601700F058F80020A06138
:100BF00007202061002010BD10B500F00BFB00F0B5
:100C0000F1FDBDE8104000F013BB000010B594B03A
:100C100034216846FFF735FC14210DA8FFF731FC9D
:100C200018480024016841F080510160006800F01C
:100C3000805012901448016821F4404141F48041F1
:100C400001600068069400F4404012900220009079
:100C500001200390102004906846FFF7EDFD08B1D5
:100C600072B6FEE70F20CDE90D040F941094002119
:100C70000DA81194FFF7FAFC002801D072B6FEE728
:100C800014B010BD403802400070004002480168B6
:100C900041F470010160704788ED00E00907090E1A
:100CA000002804DB00F1E02080F80014704700F019
:100CB0000F0000F1E02080F8141D7047002807D0D5
:100CC0000E4910F0FF0F04D051FA80F00078401C5C
:100CD000704710F47F4F04D0C0F30720085C093040
:100CE000704710F47F0F04D0C0F30740085C113048
:100CF000704701EB1060007819307047741C0008D1
:100D000003480168814201D00120704700207047EC
:100D1000640000202DE9FC411F460446DDE908314E
:100D2000DDE90A65143040600060C4E90827C4E9C1
:100D30000A310A46232118461C3400F0AFFAD4E9E0
:100D400003014218D4E90101104B121F00F046FACA
:100D500044F81A0B002004F801690D4A04F8036BEB
:100D6000E4E8020544F8105901C404F83C0B01C43E
:100D700044F87409009023460190194604F1440098
:100D800000F08AFD0020BDE8FC810000B9150008D4
:100D900059170008F0E905124A60D0E90012116005
:100DA000406000607047FFF7DDFBFFF72FFFFEE7B5
:100DB00010B500F0C7F8BDE81040FFF7F4BF000021
:100DC0002DE9F04F85B09946DDE90EA5109C63062C
:100DD00002D5DFF814C103E0DFF80CC1ACF1110C4F
:100DE000E30601D524F00104E30701D0302300E03D
:100DF000202300260493A3070BD5002A02DA2D2610
:100E0000524206E0630701D52B2602E0230700D5F6
:100E1000202600234FF0300EEB461AB98DF800E083
:100E200001230CE0B9F10A0F14D002F00F081209E7
:100E30001CF808800BF803805B1C002AF2D1AB423F
:100E400000DD1D46AAEB050214F0110F4FF020073C
:100E500008D015E00A27B2FBF7F807FB1828B2FB09
:100E6000F7F2E5E73EB1002A05DD521E03E08842B5
:100E700000D80770401CB2F1000CA2F10102F6DCB0
:100E800026B1884201D80670521E401CE40605D5E2
:100E900008E0884201D8049C0470401C141EA2F192
:100EA0000102F6DC74462E466D1E9E420ADD884223
:100EB00000D80470401CF6E7884201D8E55C057054
:100EC000401C00E05C461D1EA3F10103F4DC03E0BE
:100ED000884200D80770401C131EA2F10102F7DC03
:100EE00005B0BDE8F08F0000851D00081FB50A4C55
:100EF00014230A224FF40071A4F500708DE80F004E
:100F00000023064A06A1204600F0D4FB04B0204688
:100F1000BDE8104000F00ABC88020020B10D0008B6
:100F20006D61696E0000000070B5044C044D02E074
:100F300020688047241DAC42FAD370BD9C1D000878
:100F4000A01D000870B5044C044D02E020688047E5
:100F5000241DAC42FAD370BDA01D0008A41D0008DA
:100F600010B5FFF79FF9044A5188491C5180BDE82C
:100F70001040FFF79BB900005800002010B5FFF7A4
:100F800091F909494A88521E12B24A80002A07DCA8
:100F900000224A80FFF78AF9BDE8104000F0EAB964
:100FA000BDE81040FFF782B9580000200B484FF40D
:100FB0007A710068B0FBF1F0401EB0F1807F0AD278
:100FC0004FF0E0214861064AF02082F8140D00201D
:100FD000886107200861FFF7A7BF00000C00002010
:100FE0000FE000E07047000070B50546041D2B4877
:100FF000016819B12846884700284DD028A0E16B28
:1010000000F024F92AA0216A00F020F92CA0616ADE
:1010100000F01CF92EA0A16A00F018F930A0E16AD6
:1010200000F014F932A0216800F010F934A06168D2
:1010300000F00CF936A0A16800F008F938A0E168CA
:1010400000F004F93AA0216900F000F93CA06169C0
:1010500000F0FCF83EA0A16900F0F8F840A0E169BA
:1010600000F0F4F842A0216B00F0F0F844A0616BAE
:1010700000F0ECF846A0A16B00F0E8F828784007F3
:1010800006D500F04DFB014645A000F0DFF802E078
:101090004BA000F0DBF8FEE770BD000078000020F8
:1010A0007073723A203078253038780A00000000DA
:1010B0007230303A203078253038780A000000004D
:1010C0007230313A203078253038780A000000003C
:1010D0007230323A203078253038780A000000002B
:1010E0007230333A203078253038780A000000001A
:1010F0007230343A203078253038780A0000000009
:101100007230353A203078253038780A00000000F7
:101110007230363A203078253038780A00000000E6
:101120007230373A203078253038780A00000000D5
:101130007230383A203078253038780A00000000C4
:101140007230393A203078253038780A00000000B3
:101150007231303A203078253038780A00000000AB
:101160007231313A203078253038780A000000009A
:101170007231323A203078253038780A0000000089
:10118000206C723A203078253038780A0000000050
:101190002070633A203078253038780A000000004B
:1011A00068617264206661756C74206F6E2074686B
:1011B000726561643A2025730D0A0D0A0000000073
:1011C00068617264206661756C74206F6E2068615E
:1011D0006E646C65720D0A0D0A00000070B504465D
:1011E000121D22F007000022094D403840F822501D
:1011F000521C102AFAD301620021416281624FF031
:10120000807200F13005C263C16285E81A0070BDCA
:10121000EFBEADDE10B5FFF745F8044A1178491C62
:101220001170BDE81040FFF741B800001400002025
:1012300010B5FFF737F8044A1178491E1170BDE860
:101240001040FFF733B80000140000200FB47F21D6
:1012500010B503AB0448029A00F094FB0248FFF774
:10126000C1FE10BC5DF814FBF80300200268516059
:1012700002680A6001604860704702685160026855
:101280000A60016048607047D0E900124A60D0E906
:1012900000121160406000607047000010B5034606
:1012A000CCB2042A1AD3810718D1194644EA042380
:1012B00043EA034306E008C1103A08C141F8083B7D
:1012C00041F8043C102AF6D201E008C1121F042A9A
:1012D000FBD20B4602E000BF03F8014B521EFBD2CB
:1012E00010BD10B50446FEF7DDFFF4E903124A60B5
:1012F000D4E90012116064602460BDE81040FEF77C
:10130000D5BF0000074A002102EB01131B7883427E
:1013100002D102EB01107047491C0429F4DB0020C4
:1013200070470000180000202DE9F04104461746E0
:101330000E460846FFF7E6FF054646F0800020729D
:1013400008223946204600F0EDF8FEF7ABFF55F8CD
:10135000041F0C344C60296821602C606560BDE876
:10136000F041FEF7A3BF007A000601D501207047C7
:101370000020704770B5FEF795FF114C0546608858
:10138000B0B9A068FFF79AFC0E49401E626851F898
:101390003010143991420BD020700B4861600078F6
:1013A00001F11C01002802F11C0006D0FEF781FFAC
:1013B0002846BDE87040FEF779BFFEF77AFFF7E7F1
:1013C00058000020780400201400002010B50446C6
:1013D000FEF768FF024694F834000E4920F00F0033
:1013E000401C84F8340094F8350001EBC00104F18E
:1013F00014004B6818604B68A3614860064861613F
:10140000A16B836819438160BDE810401046FEF768
:101410004DBF0000780400205800002010B504469D
:10142000FEF740FF04F11401D1E900235360D1E934
:1014300000231A60A161616194F83520074951F8D1
:10144000323001EBC2018B4204D10549A36B8A689B
:101450009A438A60BDE81040FEF728BF7804002058
:101460005800002008B509A0FFF7F0FE0AA0FFF71A
:10147000EDFE12A0032300900022194612A0FFF7F0
:10148000E5FEBDE8084018A0FFF7E0BE0A205C209A
:101490007C202F0A000000002D205254202D2020F7
:1014A000202020546872656164204F7065726174F9
:1014B000696E672053797374656D0A0053657020F7
:1014C0003234203230323400202F207C205C202027
:1014D00020202025642E25642E2564206275696CE9
:1014E000642025730A0000002032303036202D2081
:1014F0003230313820436F707972696768742062C6
:10150000792072742D746872656164207465616DF0
:101510000A000000014600E0491C0A78002AFBD1BD
:10152000081A704710B5002A07D0034611F8014B7E
:1015300003F8014B2CB1521EF8D110BD03F8011B6A
:1015400000E00021521EF9D110BD000010B50A497B
:1015500000230A4C4B80184604EBC002401C52602A
:1015600012602028F8DB1F20087003484B600C3005
:101570008B604060006010BD58000020780400209F
:1015800010B5074CA068FFF799FB0649401E51F8BB
:10159000300014386060BDE810401C30FEF7B7BE64
:1015A0005800002078040020014840600060704727
:1015B000700000207047000070B513480468FEF703
:1015C00071FE05462046FFF729FF042084F8340009
:1015D00004F1440000F050F92046FFF7C4FE012852
:1015E00001D1206F58B104F114010848FFF73EFE05
:1015F0002846FEF75BFEBDE87040FFF7BBBE204605
:10160000FFF76FFEF4E700005C000020640000209C
:1016100000F002F8FCE7000070B521E0FEF742FEA2
:101620000546FFF76DFB10B313480168A1F11404E0
:10163000D1E900024260D1E900021060496009600E
:10164000FFF78EFC216F09B1204688472046FFF73F
:101650008AFE012809D0FFF791FC2846FEF726FEF6
:10166000FFF74EFB0028D9D170BDFFF787FC284655
:10167000BDE87040FEF71ABE640000201FB509489F
:1016800020231F2280218DE80F000023064A07A196
:10169000783800F00FF804B00248BDE81040783800
:1016A00000F044B878030020111600087469646CD7
:1016B000650000002DE9FF5F92460EAA0C4692E8F5
:1016C000E0010A46994683460021FFF72DFE8DE88A
:1016D000E0014B46524621465846FFF71BFB04B03B
:1016E000BDE8F09F70B5044690F8340000F00F009C
:1016F000022802D04FF0FF3070BDFEF7D3FD054643
:1017000004F11400FFF7C0FD04F1440000F022F9D9
:101710002846FEF7CBFD2046FFF758FE002070BD9F
:1017200001480068704700005C00002010B590F888
:101730003610012280F835108A400221826380F839
:101740003410FFF7CFFF0348006808B1FFF712FE1F
:10175000002010BD5C00002010B504466FF00100B1
:10176000206304F11400FFF78FFD2046FFF72EFEE3
:10177000BDE81040FFF7FEBD70B5FEF793FD0646CD
:101780001348046894F8340000F00F00012819D1C0
:10179000D4E90501884215D004F114000546FFF78D
:1017A00073FD94F835000B4901EBC00041680D60F2
:1017B00041686960456028603046FEF777FDFFF7B5
:1017C000D9FD02E03046FEF771FD002070BD00003B
:1017D0005C00002078040020014800687047000089
:1017E00010000020094810B50168491C0160FFF78E
:1017F00097FF016C491E016403D1C16B0164FFF7BF
:10180000BBFFBDE8104000F003B80000100000204E
:101810002DE9F041FFF7E0FF0646FEF743FD0746DE
:10182000144D1EE060696FF00041301A143C88428C
:101830001AD22046FFF7AEFAD4E907108847FFF71F
:10184000CBFF0646607A810708D5C10706D020F095
:1018500001006072204600F037F802E020F001003D
:1018600060722C68AC42DDD13846BDE8F041FEF72D
:101870001DBD00007000002070B50546FEF712FD8A
:1018800004462846FFF786FA2046FEF70FFD284655
:10189000FFF727FD002070BD2DE9F0411746DDE977
:1018A00006580A461E4604460921FFF73DFD28F06A
:1018B000010161720021C4E90951C4E907761434B9
:1018C00064602460BDE8F081F8B50446FEF7EAFCE8
:1018D00005462046FFF75EFA607A20F0010060724C
:1018E0002846FEF7E3FCFFF777FF616A0844A06231
:1018F000FEF7D8FC0546164A0020009202EBC00213
:10190000694653686FF0004C5DF820200BE01268C8
:10191000A2EBC0067769A66AB74202D0BE1B664535
:1019200003D341F820209A42F1D10948001F0168F1
:10193000491C016004F114010098FFF79EFC607AD5
:1019400040F0010060722846FEF7B0FC0020F8BDB0
:101950007000002070B50446407AC0070ED0FEF734
:10196000A1FC05462046FFF715FA2846FEF79EFC27
:10197000607A20F001006072002070BD4FF0FF30EF
:1019800070BD00002DE9FF4F471804467F1E83B04D
:1019900080464FF0FF394FF0200A4FF0250BA74249
:1019A00000D24F4608E1252803D0BC4200D8207061
:1019B00081E000260599491C059108782D2811D051
:1019C0002B2812D0202813D0232814D0302815D04B
:1019D0000A784D46303A0A2A13D205A800F029F9B0
:1019E00005461AE046F01006E4E746F00406E1E793
:1019F00046F00806DEE746F02006DBE746F0010683
:101A0000D8E72A2809D10698491C059120C80690D4
:101A1000002D02DA6D4246F01006CDF800900598D0
:101A200001782E2918D1401C05900178A1F13002CF
:101A30000A2A04D205A800F0FCF8009008E02A2940
:101A400008D1401C0590069802C8069000910846EF
:101A5000002801DA00200090059A002011786829FA
:101A600001D06C2902D1521C0846059211780A2334
:101A70006F296ED00CDC63291FD004DC252979D0B6
:101A800058290DD17FE0642901D0692908D17EE071
:101A9000702960D073292CD075297AD0782974D018
:101AA000BC4201D884F800B00598641C0178D1B319
:101AB000BC4200D82170641C7BE0F00608D450467C
:101AC0006D1E002D04DDBC4200D82070641CF7E7B9
:101AD0000698BC4210F8041B069000D821705046AE
:101AE00002E0BC4200D82070641C6D1E002DF8DCA2
:101AF0005FE0069808C8069003B93DA31846FFF7B3
:101B000009FD0099002902DD884200DD0846F10642
:101B10000AD451462A466D1E824205DDBC4200D8D9
:101B20002170641CF6E750E0002106E0BC4201D8B9
:101B30001A782270491C5B1C641C8142F6DB5246F9
:101B400029466D1E814234DDBC4200D82270641CDF
:101B5000F6E716E00EE0681C02D1082546F0010603
:101B600000980296CDE9005006981023394604C823
:101B700006901AE0BC429ED884F800B09BE708E0CB
:101B800003E0082305E046F04006102301E046F09C
:101B900002066C2801D068281AD0069804C806905E
:101BA00000983946CDE9005002962046FFF708F923
:101BB00004460598401C05900598007800287FF49D
:101BC000F2AEBC420DD820700CE0401E0590F0E74C
:101BD000069830F8041B06908AB2B007E0D512B21E
:101BE000DEE7387007B0A4EB0800BDE8F08F000016
:101BF000284E554C4C2900000020704700207047AB
:101C0000002070470020704710B5FEF74BFBFFF730
:101C1000CDF9FFF727FCFFF7C7FCFFF797FCFFF7AD
:101C200065F9FFF7C7FCFFF729FDFFF7A9FC0020C6
:101C300010BD10B5014600206FF02F0307E0541CC3
:101C40000C60127800EB800003EB400010440A683F
:101C50001478303C0A2CF2D310BD4FF04070E1EE06
:101C6000100A704700000000000000000102030499
:101C7000060708090000010002000100030001003E
:101C80000200010004000100020001000300010045
:101C90000200010005000100020001000300010034
:101CA0000200010004000100020001000300010025
:101CB0000200010006000100020001000300010013
:101CC0000200010004000100020001000300010005
:101CD00002000100050001000200010003000100F4
:101CE00002000100040001000200010003000100E5
:101CF00002000100070001000200010003000100D2
:101D000002000100040001000200010003000100C4
:101D100002000100050001000200010003000100B3
:101D200002000100040001000200010003000100A4
:101D30000200010006000100020001000300010092
:101D40000200010004000100020001000300010084
:101D50000200010005000100020001000300010073
:101D60000200010004000100020001000300010064
:101D70000200010030313233343536373839616290
:101D80006364656600303132333435363738394173
:101D90004243444546000000051C0008FD1B0008A6
:101DA000F91B0008011C0008C81D000800000020E5
:101DB0008800000000020008501E00088800002073
:101DC000500B00001C020008010000001000000081
:101DD000000000000024F4000000000000000000EB
:101DE000000000001C0000201C0000207800000003
:101DF000010000002C0000202C000020200000002A
:101E0000040000003C0000203C00002030000000E6
:101E1000090000004C0000204C0000202C000000B5
:101E200000000000000000000000000000000000B2
:101E300000000000000000000000000000000000A2
:101E40000000000000000000000000000000000092
:04000005080001C529
:00000001FF
